{
  "_format": "hh-sol-artifact-1",
  "contractName": "VotingContract",
  "sourceName": "contracts/VotingContract.sol",
  "abi": [
    {
      "inputs": [],
      "stateMutability": "nonpayable",
      "type": "constructor"
    },
    {
      "anonymous": false,
      "inputs": [
        {
          "indexed": true,
          "internalType": "uint256",
          "name": "id",
          "type": "uint256"
        },
        {
          "indexed": false,
          "internalType": "string",
          "name": "name",
          "type": "string"
        }
      ],
      "name": "CandidateAdded",
      "type": "event"
    },
    {
      "anonymous": false,
      "inputs": [
        {
          "indexed": true,
          "internalType": "address",
          "name": "voter",
          "type": "address"
        },
        {
          "indexed": true,
          "internalType": "uint256",
          "name": "candidateId",
          "type": "uint256"
        }
      ],
      "name": "Voted",
      "type": "event"
    },
    {
      "anonymous": false,
      "inputs": [
        {
          "indexed": true,
          "internalType": "address",
          "name": "voter",
          "type": "address"
        }
      ],
      "name": "VoterAllowed",
      "type": "event"
    },
    {
      "inputs": [
        {
          "internalType": "string",
          "name": "_name",
          "type": "string"
        }
      ],
      "name": "addCandidate",
      "outputs": [],
      "stateMutability": "nonpayable",
      "type": "function"
    },
    {
      "inputs": [
        {
          "internalType": "address",
          "name": "_voter",
          "type": "address"
        }
      ],
      "name": "allowVoter",
      "outputs": [],
      "stateMutability": "nonpayable",
      "type": "function"
    },
    {
      "inputs": [
        {
          "internalType": "address",
          "name": "",
          "type": "address"
        }
      ],
      "name": "allowedVoters",
      "outputs": [
        {
          "internalType": "bool",
          "name": "",
          "type": "bool"
        }
      ],
      "stateMutability": "view",
      "type": "function"
    },
    {
      "inputs": [
        {
          "internalType": "uint256",
          "name": "",
          "type": "uint256"
        }
      ],
      "name": "candidates",
      "outputs": [
        {
          "internalType": "uint256",
          "name": "id",
          "type": "uint256"
        },
        {
          "internalType": "string",
          "name": "name",
          "type": "string"
        },
        {
          "internalType": "uint256",
          "name": "voteCount",
          "type": "uint256"
        }
      ],
      "stateMutability": "view",
      "type": "function"
    },
    {
      "inputs": [],
      "name": "candidatesCount",
      "outputs": [
        {
          "internalType": "uint256",
          "name": "",
          "type": "uint256"
        }
      ],
      "stateMutability": "view",
      "type": "function"
    },
    {
      "inputs": [],
      "name": "endVoting",
      "outputs": [],
      "stateMutability": "nonpayable",
      "type": "function"
    },
    {
      "inputs": [],
      "name": "getAllCandidates",
      "outputs": [
        {
          "components": [
            {
              "internalType": "uint256",
              "name": "id",
              "type": "uint256"
            },
            {
              "internalType": "string",
              "name": "name",
              "type": "string"
            },
            {
              "internalType": "uint256",
              "name": "voteCount",
              "type": "uint256"
            }
          ],
          "internalType": "struct VotingContract.Candidate[]",
          "name": "",
          "type": "tuple[]"
        }
      ],
      "stateMutability": "view",
      "type": "function"
    },
    {
      "inputs": [
        {
          "internalType": "uint256",
          "name": "_id",
          "type": "uint256"
        }
      ],
      "name": "getCandidate",
      "outputs": [
        {
          "internalType": "uint256",
          "name": "",
          "type": "uint256"
        },
        {
          "internalType": "string",
          "name": "",
          "type": "string"
        },
        {
          "internalType": "uint256",
          "name": "",
          "type": "uint256"
        }
      ],
      "stateMutability": "view",
      "type": "function"
    },
    {
      "inputs": [],
      "name": "owner",
      "outputs": [
        {
          "internalType": "address",
          "name": "",
          "type": "address"
        }
      ],
      "stateMutability": "view",
      "type": "function"
    },
    {
      "inputs": [
        {
          "internalType": "uint256",
          "name": "_candidateId",
          "type": "uint256"
        }
      ],
      "name": "vote",
      "outputs": [],
      "stateMutability": "nonpayable",
      "type": "function"
    },
    {
      "inputs": [
        {
          "internalType": "address",
          "name": "",
          "type": "address"
        }
      ],
      "name": "voters",
      "outputs": [
        {
          "internalType": "bool",
          "name": "hasVoted",
          "type": "bool"
        },
        {
          "internalType": "uint256",
          "name": "votedCandidateId",
          "type": "uint256"
        }
      ],
      "stateMutability": "view",
      "type": "function"
    },
    {
      "inputs": [],
      "name": "votingEnded",
      "outputs": [
        {
          "internalType": "bool",
          "name": "",
          "type": "bool"
        }
      ],
      "stateMutability": "view",
      "type": "function"
    }
  ],
  "bytecode": "0x6080604052348015600f57600080fd5b50336000806101000a81548173ffffffffffffffffffffffffffffffffffffffff021916908373ffffffffffffffffffffffffffffffffffffffff1602179055506117ba8061005f6000396000f3fe608060405234801561001057600080fd5b50600436106100b45760003560e01c806335b8e8201161007157806335b8e8201461018f578063462e91ec146101c15780638da5cb5b146101dd5780639d5a0529146101fb578063a3ec138d14610219578063c3403ddf1461024a576100b4565b80630121b93f146100b9578063171b11c8146100d5578063255adfd4146100f15780632d35a8a2146101215780632e6997fe1461013f5780633477ee2e1461015d575b600080fd5b6100d360048036038101906100ce9190610c4a565b610254565b005b6100ef60048036038101906100ea9190610cd5565b610526565b005b61010b60048036038101906101069190610cd5565b610652565b6040516101189190610d1d565b60405180910390f35b610129610672565b6040516101369190610d47565b60405180910390f35b610147610678565b6040516101549190610f13565b60405180910390f35b61017760048036038101906101729190610c4a565b6107ed565b60405161018693929190610f7f565b60405180910390f35b6101a960048036038101906101a49190610c4a565b61089f565b6040516101b893929190610f7f565b60405180910390f35b6101db60048036038101906101d691906110f2565b610989565b005b6101e5610acc565b6040516101f2919061114a565b60405180910390f35b610203610af0565b6040516102109190610d1d565b60405180910390f35b610233600480360381019061022e9190610cd5565b610b03565b604051610241929190611165565b60405180910390f35b610252610b34565b005b600560009054906101000a900460ff16156102a4576040517f08c379a000000000000000000000000000000000000000000000000000000000815260040161029b906111da565b60405180910390fd5b600360003373ffffffffffffffffffffffffffffffffffffffff1673ffffffffffffffffffffffffffffffffffffffff16815260200190815260200160002060009054906101000a900460ff16610330576040517f08c379a000000000000000000000000000000000000000000000000000000000815260040161032790611246565b60405180910390fd5b600260003373ffffffffffffffffffffffffffffffffffffffff1673ffffffffffffffffffffffffffffffffffffffff16815260200190815260200160002060000160009054906101000a900460ff16156103c0576040517f08c379a00000000000000000000000000000000000000000000000000000000081526004016103b7906112b2565b60405180910390fd5b6000811180156103d257506004548111155b610411576040517f08c379a00000000000000000000000000000000000000000000000000000000081526004016104089061131e565b60405180910390fd5b6001600260003373ffffffffffffffffffffffffffffffffffffffff1673ffffffffffffffffffffffffffffffffffffffff16815260200190815260200160002060000160006101000a81548160ff02191690831515021790555080600260003373ffffffffffffffffffffffffffffffffffffffff1673ffffffffffffffffffffffffffffffffffffffff168152602001908152602001600020600101819055506001600082815260200190815260200160002060020160008154809291906104da9061136d565b9190505550803373ffffffffffffffffffffffffffffffffffffffff167f4d99b957a2bc29a30ebd96a7be8e68fe50a3c701db28a91436490b7d53870ca460405160405180910390a350565b60008054906101000a900473ffffffffffffffffffffffffffffffffffffffff1673ffffffffffffffffffffffffffffffffffffffff163373ffffffffffffffffffffffffffffffffffffffff16146105b4576040517f08c379a00000000000000000000000000000000000000000000000000000000081526004016105ab90611401565b60405180910390fd5b6001600360008373ffffffffffffffffffffffffffffffffffffffff1673ffffffffffffffffffffffffffffffffffffffff16815260200190815260200160002060006101000a81548160ff0219169083151502179055508073ffffffffffffffffffffffffffffffffffffffff167fec33f93fcd18a593ffe42260f3601cabbfa381d86345637dad4d8188bbc9544060405160405180910390a250565b60036020528060005260406000206000915054906101000a900460ff1681565b60045481565b6060600060045467ffffffffffffffff81111561069857610697610fc7565b5b6040519080825280602002602001820160405280156106d157816020015b6106be610bdf565b8152602001906001900390816106b65790505b5090506000600190505b60045481116107e557600160008281526020019081526020016000206040518060600160405290816000820154815260200160018201805461071c90611450565b80601f016020809104026020016040519081016040528092919081815260200182805461074890611450565b80156107955780601f1061076a57610100808354040283529160200191610795565b820191906000526020600020905b81548152906001019060200180831161077857829003601f168201915b50505050508152602001600282015481525050826001836107b69190611481565b815181106107c7576107c66114b5565b5b602002602001018190525080806107dd9061136d565b9150506106db565b508091505090565b600160205280600052604060002060009150905080600001549080600101805461081690611450565b80601f016020809104026020016040519081016040528092919081815260200182805461084290611450565b801561088f5780601f106108645761010080835404028352916020019161088f565b820191906000526020600020905b81548152906001019060200180831161087257829003601f168201915b5050505050908060020154905083565b6000606060008060016000868152602001908152602001600020604051806060016040529081600082015481526020016001820180546108de90611450565b80601f016020809104026020016040519081016040528092919081815260200182805461090a90611450565b80156109575780601f1061092c57610100808354040283529160200191610957565b820191906000526020600020905b81548152906001019060200180831161093a57829003601f168201915b505050505081526020016002820154815250509050806000015181602001518260400151935093509350509193909250565b60008054906101000a900473ffffffffffffffffffffffffffffffffffffffff1673ffffffffffffffffffffffffffffffffffffffff163373ffffffffffffffffffffffffffffffffffffffff1614610a17576040517f08c379a0000000000000000000000000000000000000000000000000000000008152600401610a0e90611401565b60405180910390fd5b60046000815480929190610a2a9061136d565b9190505550604051806060016040528060045481526020018281526020016000815250600160006004548152602001908152602001600020600082015181600001556020820151816001019081610a819190611690565b50604082015181600201559050506004547fe83b2a43e7e82d975c8a0a6d2f045153c869e111136a34d1889ab7b598e396a382604051610ac19190611762565b60405180910390a250565b60008054906101000a900473ffffffffffffffffffffffffffffffffffffffff1681565b600560009054906101000a900460ff1681565b60026020528060005260406000206000915090508060000160009054906101000a900460ff16908060010154905082565b60008054906101000a900473ffffffffffffffffffffffffffffffffffffffff1673ffffffffffffffffffffffffffffffffffffffff163373ffffffffffffffffffffffffffffffffffffffff1614610bc2576040517f08c379a0000000000000000000000000000000000000000000000000000000008152600401610bb990611401565b60405180910390fd5b6001600560006101000a81548160ff021916908315150217905550565b60405180606001604052806000815260200160608152602001600081525090565b6000604051905090565b600080fd5b600080fd5b6000819050919050565b610c2781610c14565b8114610c3257600080fd5b50565b600081359050610c4481610c1e565b92915050565b600060208284031215610c6057610c5f610c0a565b5b6000610c6e84828501610c35565b91505092915050565b600073ffffffffffffffffffffffffffffffffffffffff82169050919050565b6000610ca282610c77565b9050919050565b610cb281610c97565b8114610cbd57600080fd5b50565b600081359050610ccf81610ca9565b92915050565b600060208284031215610ceb57610cea610c0a565b5b6000610cf984828501610cc0565b91505092915050565b60008115159050919050565b610d1781610d02565b82525050565b6000602082019050610d326000830184610d0e565b92915050565b610d4181610c14565b82525050565b6000602082019050610d5c6000830184610d38565b92915050565b600081519050919050565b600082825260208201905092915050565b6000819050602082019050919050565b610d9781610c14565b82525050565b600081519050919050565b600082825260208201905092915050565b60005b83811015610dd7578082015181840152602081019050610dbc565b60008484015250505050565b6000601f19601f8301169050919050565b6000610dff82610d9d565b610e098185610da8565b9350610e19818560208601610db9565b610e2281610de3565b840191505092915050565b6000606083016000830151610e456000860182610d8e565b5060208301518482036020860152610e5d8282610df4565b9150506040830151610e726040860182610d8e565b508091505092915050565b6000610e898383610e2d565b905092915050565b6000602082019050919050565b6000610ea982610d62565b610eb38185610d6d565b935083602082028501610ec585610d7e565b8060005b85811015610f015784840389528151610ee28582610e7d565b9450610eed83610e91565b925060208a01995050600181019050610ec9565b50829750879550505050505092915050565b60006020820190508181036000830152610f2d8184610e9e565b905092915050565b600082825260208201905092915050565b6000610f5182610d9d565b610f5b8185610f35565b9350610f6b818560208601610db9565b610f7481610de3565b840191505092915050565b6000606082019050610f946000830186610d38565b8181036020830152610fa68185610f46565b9050610fb56040830184610d38565b949350505050565b600080fd5b600080fd5b7f4e487b7100000000000000000000000000000000000000000000000000000000600052604160045260246000fd5b610fff82610de3565b810181811067ffffffffffffffff8211171561101e5761101d610fc7565b5b80604052505050565b6000611031610c00565b905061103d8282610ff6565b919050565b600067ffffffffffffffff82111561105d5761105c610fc7565b5b61106682610de3565b9050602081019050919050565b82818337600083830152505050565b600061109561109084611042565b611027565b9050828152602081018484840111156110b1576110b0610fc2565b5b6110bc848285611073565b509392505050565b600082601f8301126110d9576110d8610fbd565b5b81356110e9848260208601611082565b91505092915050565b60006020828403121561110857611107610c0a565b5b600082013567ffffffffffffffff81111561112657611125610c0f565b5b611132848285016110c4565b91505092915050565b61114481610c97565b82525050565b600060208201905061115f600083018461113b565b92915050565b600060408201905061117a6000830185610d0e565b6111876020830184610d38565b9392505050565b7f566f74696e672068617320656e64656400000000000000000000000000000000600082015250565b60006111c4601083610f35565b91506111cf8261118e565b602082019050919050565b600060208201905081810360008301526111f3816111b7565b9050919050565b7f596f7520617265206e6f7420616c6c6f77656420746f20766f74650000000000600082015250565b6000611230601b83610f35565b915061123b826111fa565b602082019050919050565b6000602082019050818103600083015261125f81611223565b9050919050565b7f596f75206861766520616c726561647920766f74656400000000000000000000600082015250565b600061129c601683610f35565b91506112a782611266565b602082019050919050565b600060208201905081810360008301526112cb8161128f565b9050919050565b7f496e76616c69642063616e646964617465000000000000000000000000000000600082015250565b6000611308601183610f35565b9150611313826112d2565b602082019050919050565b60006020820190508181036000830152611337816112fb565b9050919050565b7f4e487b7100000000000000000000000000000000000000000000000000000000600052601160045260246000fd5b600061137882610c14565b91507fffffffffffffffffffffffffffffffffffffffffffffffffffffffffffffffff82036113aa576113a961133e565b5b600182019050919050565b7f4f6e6c79206f776e65722063616e2063616c6c20746869730000000000000000600082015250565b60006113eb601883610f35565b91506113f6826113b5565b602082019050919050565b6000602082019050818103600083015261141a816113de565b9050919050565b7f4e487b7100000000000000000000000000000000000000000000000000000000600052602260045260246000fd5b6000600282049050600182168061146857607f821691505b60208210810361147b5761147a611421565b5b50919050565b600061148c82610c14565b915061149783610c14565b92508282039050818111156114af576114ae61133e565b5b92915050565b7f4e487b7100000000000000000000000000000000000000000000000000000000600052603260045260246000fd5b60008190508160005260206000209050919050565b60006020601f8301049050919050565b600082821b905092915050565b6000600883026115467fffffffffffffffffffffffffffffffffffffffffffffffffffffffffffffffff82611509565b6115508683611509565b95508019841693508086168417925050509392505050565b6000819050919050565b600061158d61158861158384610c14565b611568565b610c14565b9050919050565b6000819050919050565b6115a783611572565b6115bb6115b382611594565b848454611516565b825550505050565b600090565b6115d06115c3565b6115db81848461159e565b505050565b5b818110156115ff576115f46000826115c8565b6001810190506115e1565b5050565b601f82111561164457611615816114e4565b61161e846114f9565b8101602085101561162d578190505b611641611639856114f9565b8301826115e0565b50505b505050565b600082821c905092915050565b600061166760001984600802611649565b1980831691505092915050565b60006116808383611656565b9150826002028217905092915050565b61169982610d9d565b67ffffffffffffffff8111156116b2576116b1610fc7565b5b6116bc8254611450565b6116c7828285611603565b600060209050601f8311600181146116fa57600084156116e8578287015190505b6116f28582611674565b86555061175a565b601f198416611708866114e4565b60005b828110156117305784890151825560018201915060208501945060208101905061170b565b8683101561174d5784890151611749601f891682611656565b8355505b6001600288020188555050505b505050505050565b6000602082019050818103600083015261177c8184610f46565b90509291505056fea264697066735822122022fa8618dd0fcf84940f96e7ba63d7ee8a761f71cb819c64401377f966729ad864736f6c634300081c0033",
  "linkReferences": {},
  "deployedLinkReferences": {}
}