{
  "_format": "hh-sol-artifact-1",
  "contractName": "VotingContract",
  "sourceName": "contracts/VotingContract.sol",
  "abi": [
    {
      "inputs": [],
      "stateMutability": "nonpayable",
      "type": "constructor"
    },
    {
      "anonymous": false,
      "inputs": [
        {
          "indexed": true,
          "internalType": "uint256",
          "name": "id",
          "type": "uint256"
        },
        {
          "indexed": false,
          "internalType": "string",
          "name": "name",
          "type": "string"
        }
      ],
      "name": "CandidateAdded",
      "type": "event"
    },
    {
      "anonymous": false,
      "inputs": [
        {
          "indexed": true,
          "internalType": "address",
          "name": "voter",
          "type": "address"
        },
        {
          "indexed": true,
          "internalType": "uint256",
          "name": "candidateId",
          "type": "uint256"
        }
      ],
      "name": "Voted",
      "type": "event"
    },
    {
      "anonymous": false,
      "inputs": [
        {
          "indexed": true,
          "internalType": "address",
          "name": "voter",
          "type": "address"
        }
      ],
      "name": "VoterAllowed",
      "type": "event"
    },
    {
      "inputs": [
        {
          "internalType": "string",
          "name": "_name",
          "type": "string"
        }
      ],
      "name": "addCandidate",
      "outputs": [],
      "stateMutability": "nonpayable",
      "type": "function"
    },
    {
      "inputs": [
        {
          "internalType": "address",
          "name": "_voter",
          "type": "address"
        }
      ],
      "name": "allowVoter",
      "outputs": [],
      "stateMutability": "nonpayable",
      "type": "function"
    },
    {
      "inputs": [
        {
          "internalType": "address",
          "name": "",
          "type": "address"
        }
      ],
      "name": "allowedVoters",
      "outputs": [
        {
          "internalType": "bool",
          "name": "",
          "type": "bool"
        }
      ],
      "stateMutability": "view",
      "type": "function"
    },
    {
      "inputs": [
        {
          "internalType": "uint256",
          "name": "",
          "type": "uint256"
        }
      ],
      "name": "candidates",
      "outputs": [
        {
          "internalType": "uint256",
          "name": "id",
          "type": "uint256"
        },
        {
          "internalType": "string",
          "name": "name",
          "type": "string"
        },
        {
          "internalType": "uint256",
          "name": "voteCount",
          "type": "uint256"
        }
      ],
      "stateMutability": "view",
      "type": "function"
    },
    {
      "inputs": [],
      "name": "candidatesCount",
      "outputs": [
        {
          "internalType": "uint256",
          "name": "",
          "type": "uint256"
        }
      ],
      "stateMutability": "view",
      "type": "function"
    },
    {
      "inputs": [],
      "name": "endVoting",
      "outputs": [],
      "stateMutability": "nonpayable",
      "type": "function"
    },
    {
      "inputs": [],
      "name": "getAllCandidates",
      "outputs": [
        {
          "components": [
            {
              "internalType": "uint256",
              "name": "id",
              "type": "uint256"
            },
            {
              "internalType": "string",
              "name": "name",
              "type": "string"
            },
            {
              "internalType": "uint256",
              "name": "voteCount",
              "type": "uint256"
            }
          ],
          "internalType": "struct VotingContract.Candidate[]",
          "name": "",
          "type": "tuple[]"
        }
      ],
      "stateMutability": "view",
      "type": "function"
    },
    {
      "inputs": [
        {
          "internalType": "uint256",
          "name": "_id",
          "type": "uint256"
        }
      ],
      "name": "getCandidate",
      "outputs": [
        {
          "internalType": "uint256",
          "name": "",
          "type": "uint256"
        },
        {
          "internalType": "string",
          "name": "",
          "type": "string"
        },
        {
          "internalType": "uint256",
          "name": "",
          "type": "uint256"
        }
      ],
      "stateMutability": "view",
      "type": "function"
    },
    {
      "inputs": [],
      "name": "getOwner",
      "outputs": [
        {
          "internalType": "address",
          "name": "",
          "type": "address"
        }
      ],
      "stateMutability": "view",
      "type": "function"
    },
    {
      "inputs": [],
      "name": "owner",
      "outputs": [
        {
          "internalType": "address",
          "name": "",
          "type": "address"
        }
      ],
      "stateMutability": "view",
      "type": "function"
    },
    {
      "inputs": [],
      "name": "resetVoting",
      "outputs": [],
      "stateMutability": "nonpayable",
      "type": "function"
    },
    {
      "inputs": [
        {
          "internalType": "uint256",
          "name": "_candidateId",
          "type": "uint256"
        }
      ],
      "name": "vote",
      "outputs": [],
      "stateMutability": "nonpayable",
      "type": "function"
    },
    {
      "inputs": [
        {
          "internalType": "address",
          "name": "",
          "type": "address"
        }
      ],
      "name": "voters",
      "outputs": [
        {
          "internalType": "bool",
          "name": "hasVoted",
          "type": "bool"
        },
        {
          "internalType": "uint256",
          "name": "votedCandidateId",
          "type": "uint256"
        }
      ],
      "stateMutability": "view",
      "type": "function"
    },
    {
      "inputs": [],
      "name": "votingEnded",
      "outputs": [
        {
          "internalType": "bool",
          "name": "",
          "type": "bool"
        }
      ],
      "stateMutability": "view",
      "type": "function"
    }
  ],
  "bytecode": "0x6080604052348015600f57600080fd5b50336000806101000a81548173ffffffffffffffffffffffffffffffffffffffff021916908373ffffffffffffffffffffffffffffffffffffffff1602179055506118f48061005f6000396000f3fe608060405234801561001057600080fd5b50600436106100ea5760003560e01c8063462e91ec1161008c5780638da5cb5b116100665780638da5cb5b1461023b5780639d5a052914610259578063a3ec138d14610277578063c3403ddf146102a8576100ea565b8063462e91ec146101f7578063856e698c14610213578063893d20e81461021d576100ea565b80632d35a8a2116100c85780632d35a8a2146101575780632e6997fe146101755780633477ee2e1461019357806335b8e820146101c5576100ea565b80630121b93f146100ef578063171b11c81461010b578063255adfd414610127575b600080fd5b61010960048036038101906101049190610d84565b6102b2565b005b61012560048036038101906101209190610e0f565b610584565b005b610141600480360381019061013c9190610e0f565b6106b0565b60405161014e9190610e57565b60405180910390f35b61015f6106d0565b60405161016c9190610e81565b60405180910390f35b61017d6106d6565b60405161018a919061104d565b60405180910390f35b6101ad60048036038101906101a89190610d84565b61084b565b6040516101bc939291906110b9565b60405180910390f35b6101df60048036038101906101da9190610d84565b6108fd565b6040516101ee939291906110b9565b60405180910390f35b610211600480360381019061020c919061122c565b6109e7565b005b61021b610b2a565b005b610225610bdd565b6040516102329190611284565b60405180910390f35b610243610c06565b6040516102509190611284565b60405180910390f35b610261610c2a565b60405161026e9190610e57565b60405180910390f35b610291600480360381019061028c9190610e0f565b610c3d565b60405161029f92919061129f565b60405180910390f35b6102b0610c6e565b005b600560009054906101000a900460ff1615610302576040517f08c379a00000000000000000000000000000000000000000000000000000000081526004016102f990611314565b60405180910390fd5b600360003373ffffffffffffffffffffffffffffffffffffffff1673ffffffffffffffffffffffffffffffffffffffff16815260200190815260200160002060009054906101000a900460ff1661038e576040517f08c379a000000000000000000000000000000000000000000000000000000000815260040161038590611380565b60405180910390fd5b600260003373ffffffffffffffffffffffffffffffffffffffff1673ffffffffffffffffffffffffffffffffffffffff16815260200190815260200160002060000160009054906101000a900460ff161561041e576040517f08c379a0000000000000000000000000000000000000000000000000000000008152600401610415906113ec565b60405180910390fd5b60008111801561043057506004548111155b61046f576040517f08c379a000000000000000000000000000000000000000000000000000000000815260040161046690611458565b60405180910390fd5b6001600260003373ffffffffffffffffffffffffffffffffffffffff1673ffffffffffffffffffffffffffffffffffffffff16815260200190815260200160002060000160006101000a81548160ff02191690831515021790555080600260003373ffffffffffffffffffffffffffffffffffffffff1673ffffffffffffffffffffffffffffffffffffffff16815260200190815260200160002060010181905550600160008281526020019081526020016000206002016000815480929190610538906114a7565b9190505550803373ffffffffffffffffffffffffffffffffffffffff167f4d99b957a2bc29a30ebd96a7be8e68fe50a3c701db28a91436490b7d53870ca460405160405180910390a350565b60008054906101000a900473ffffffffffffffffffffffffffffffffffffffff1673ffffffffffffffffffffffffffffffffffffffff163373ffffffffffffffffffffffffffffffffffffffff1614610612576040517f08c379a00000000000000000000000000000000000000000000000000000000081526004016106099061153b565b60405180910390fd5b6001600360008373ffffffffffffffffffffffffffffffffffffffff1673ffffffffffffffffffffffffffffffffffffffff16815260200190815260200160002060006101000a81548160ff0219169083151502179055508073ffffffffffffffffffffffffffffffffffffffff167fec33f93fcd18a593ffe42260f3601cabbfa381d86345637dad4d8188bbc9544060405160405180910390a250565b60036020528060005260406000206000915054906101000a900460ff1681565b60045481565b6060600060045467ffffffffffffffff8111156106f6576106f5611101565b5b60405190808252806020026020018201604052801561072f57816020015b61071c610d19565b8152602001906001900390816107145790505b5090506000600190505b600454811161084357600160008281526020019081526020016000206040518060600160405290816000820154815260200160018201805461077a9061158a565b80601f01602080910402602001604051908101604052809291908181526020018280546107a69061158a565b80156107f35780601f106107c8576101008083540402835291602001916107f3565b820191906000526020600020905b8154815290600101906020018083116107d657829003601f168201915b505050505081526020016002820154815250508260018361081491906115bb565b81518110610825576108246115ef565b5b6020026020010181905250808061083b906114a7565b915050610739565b508091505090565b60016020528060005260406000206000915090508060000154908060010180546108749061158a565b80601f01602080910402602001604051908101604052809291908181526020018280546108a09061158a565b80156108ed5780601f106108c2576101008083540402835291602001916108ed565b820191906000526020600020905b8154815290600101906020018083116108d057829003601f168201915b5050505050908060020154905083565b60006060600080600160008681526020019081526020016000206040518060600160405290816000820154815260200160018201805461093c9061158a565b80601f01602080910402602001604051908101604052809291908181526020018280546109689061158a565b80156109b55780601f1061098a576101008083540402835291602001916109b5565b820191906000526020600020905b81548152906001019060200180831161099857829003601f168201915b505050505081526020016002820154815250509050806000015181602001518260400151935093509350509193909250565b60008054906101000a900473ffffffffffffffffffffffffffffffffffffffff1673ffffffffffffffffffffffffffffffffffffffff163373ffffffffffffffffffffffffffffffffffffffff1614610a75576040517f08c379a0000000000000000000000000000000000000000000000000000000008152600401610a6c9061153b565b60405180910390fd5b60046000815480929190610a88906114a7565b9190505550604051806060016040528060045481526020018281526020016000815250600160006004548152602001908152602001600020600082015181600001556020820151816001019081610adf91906117ca565b50604082015181600201559050506004547fe83b2a43e7e82d975c8a0a6d2f045153c869e111136a34d1889ab7b598e396a382604051610b1f919061189c565b60405180910390a250565b60008054906101000a900473ffffffffffffffffffffffffffffffffffffffff1673ffffffffffffffffffffffffffffffffffffffff163373ffffffffffffffffffffffffffffffffffffffff1614610bb8576040517f08c379a0000000000000000000000000000000000000000000000000000000008152600401610baf9061153b565b60405180910390fd5b6000600560006101000a81548160ff0219169083151502179055506000600481905550565b60008060009054906101000a900473ffffffffffffffffffffffffffffffffffffffff16905090565b60008054906101000a900473ffffffffffffffffffffffffffffffffffffffff1681565b600560009054906101000a900460ff1681565b60026020528060005260406000206000915090508060000160009054906101000a900460ff16908060010154905082565b60008054906101000a900473ffffffffffffffffffffffffffffffffffffffff1673ffffffffffffffffffffffffffffffffffffffff163373ffffffffffffffffffffffffffffffffffffffff1614610cfc576040517f08c379a0000000000000000000000000000000000000000000000000000000008152600401610cf39061153b565b60405180910390fd5b6001600560006101000a81548160ff021916908315150217905550565b60405180606001604052806000815260200160608152602001600081525090565b6000604051905090565b600080fd5b600080fd5b6000819050919050565b610d6181610d4e565b8114610d6c57600080fd5b50565b600081359050610d7e81610d58565b92915050565b600060208284031215610d9a57610d99610d44565b5b6000610da884828501610d6f565b91505092915050565b600073ffffffffffffffffffffffffffffffffffffffff82169050919050565b6000610ddc82610db1565b9050919050565b610dec81610dd1565b8114610df757600080fd5b50565b600081359050610e0981610de3565b92915050565b600060208284031215610e2557610e24610d44565b5b6000610e3384828501610dfa565b91505092915050565b60008115159050919050565b610e5181610e3c565b82525050565b6000602082019050610e6c6000830184610e48565b92915050565b610e7b81610d4e565b82525050565b6000602082019050610e966000830184610e72565b92915050565b600081519050919050565b600082825260208201905092915050565b6000819050602082019050919050565b610ed181610d4e565b82525050565b600081519050919050565b600082825260208201905092915050565b60005b83811015610f11578082015181840152602081019050610ef6565b60008484015250505050565b6000601f19601f8301169050919050565b6000610f3982610ed7565b610f438185610ee2565b9350610f53818560208601610ef3565b610f5c81610f1d565b840191505092915050565b6000606083016000830151610f7f6000860182610ec8565b5060208301518482036020860152610f978282610f2e565b9150506040830151610fac6040860182610ec8565b508091505092915050565b6000610fc38383610f67565b905092915050565b6000602082019050919050565b6000610fe382610e9c565b610fed8185610ea7565b935083602082028501610fff85610eb8565b8060005b8581101561103b578484038952815161101c8582610fb7565b945061102783610fcb565b925060208a01995050600181019050611003565b50829750879550505050505092915050565b600060208201905081810360008301526110678184610fd8565b905092915050565b600082825260208201905092915050565b600061108b82610ed7565b611095818561106f565b93506110a5818560208601610ef3565b6110ae81610f1d565b840191505092915050565b60006060820190506110ce6000830186610e72565b81810360208301526110e08185611080565b90506110ef6040830184610e72565b949350505050565b600080fd5b600080fd5b7f4e487b7100000000000000000000000000000000000000000000000000000000600052604160045260246000fd5b61113982610f1d565b810181811067ffffffffffffffff8211171561115857611157611101565b5b80604052505050565b600061116b610d3a565b90506111778282611130565b919050565b600067ffffffffffffffff82111561119757611196611101565b5b6111a082610f1d565b9050602081019050919050565b82818337600083830152505050565b60006111cf6111ca8461117c565b611161565b9050828152602081018484840111156111eb576111ea6110fc565b5b6111f68482856111ad565b509392505050565b600082601f830112611213576112126110f7565b5b81356112238482602086016111bc565b91505092915050565b60006020828403121561124257611241610d44565b5b600082013567ffffffffffffffff8111156112605761125f610d49565b5b61126c848285016111fe565b91505092915050565b61127e81610dd1565b82525050565b60006020820190506112996000830184611275565b92915050565b60006040820190506112b46000830185610e48565b6112c16020830184610e72565b9392505050565b7f566f74696e672068617320656e64656400000000000000000000000000000000600082015250565b60006112fe60108361106f565b9150611309826112c8565b602082019050919050565b6000602082019050818103600083015261132d816112f1565b9050919050565b7f596f7520617265206e6f7420616c6c6f77656420746f20766f74650000000000600082015250565b600061136a601b8361106f565b915061137582611334565b602082019050919050565b600060208201905081810360008301526113998161135d565b9050919050565b7f596f75206861766520616c726561647920766f74656400000000000000000000600082015250565b60006113d660168361106f565b91506113e1826113a0565b602082019050919050565b60006020820190508181036000830152611405816113c9565b9050919050565b7f496e76616c69642063616e646964617465000000000000000000000000000000600082015250565b600061144260118361106f565b915061144d8261140c565b602082019050919050565b6000602082019050818103600083015261147181611435565b9050919050565b7f4e487b7100000000000000000000000000000000000000000000000000000000600052601160045260246000fd5b60006114b282610d4e565b91507fffffffffffffffffffffffffffffffffffffffffffffffffffffffffffffffff82036114e4576114e3611478565b5b600182019050919050565b7f4f6e6c79206f776e65722063616e2063616c6c20746869730000000000000000600082015250565b600061152560188361106f565b9150611530826114ef565b602082019050919050565b6000602082019050818103600083015261155481611518565b9050919050565b7f4e487b7100000000000000000000000000000000000000000000000000000000600052602260045260246000fd5b600060028204905060018216806115a257607f821691505b6020821081036115b5576115b461155b565b5b50919050565b60006115c682610d4e565b91506115d183610d4e565b92508282039050818111156115e9576115e8611478565b5b92915050565b7f4e487b7100000000000000000000000000000000000000000000000000000000600052603260045260246000fd5b60008190508160005260206000209050919050565b60006020601f8301049050919050565b600082821b905092915050565b6000600883026116807fffffffffffffffffffffffffffffffffffffffffffffffffffffffffffffffff82611643565b61168a8683611643565b95508019841693508086168417925050509392505050565b6000819050919050565b60006116c76116c26116bd84610d4e565b6116a2565b610d4e565b9050919050565b6000819050919050565b6116e1836116ac565b6116f56116ed826116ce565b848454611650565b825550505050565b600090565b61170a6116fd565b6117158184846116d8565b505050565b5b818110156117395761172e600082611702565b60018101905061171b565b5050565b601f82111561177e5761174f8161161e565b61175884611633565b81016020851015611767578190505b61177b61177385611633565b83018261171a565b50505b505050565b600082821c905092915050565b60006117a160001984600802611783565b1980831691505092915050565b60006117ba8383611790565b9150826002028217905092915050565b6117d382610ed7565b67ffffffffffffffff8111156117ec576117eb611101565b5b6117f6825461158a565b61180182828561173d565b600060209050601f8311600181146118345760008415611822578287015190505b61182c85826117ae565b865550611894565b601f1984166118428661161e565b60005b8281101561186a57848901518255600182019150602085019450602081019050611845565b868310156118875784890151611883601f891682611790565b8355505b6001600288020188555050505b505050505050565b600060208201905081810360008301526118b68184611080565b90509291505056fea2646970667358221220396a63a67f177989c174c22e1eb8aa5ee1a052578dbb37ef9fcd61e9670b784064736f6c634300081c0033",
  "linkReferences": {},
  "deployedLinkReferences": {}
}